:020000020000FC
:040000000040003488
:04000100084060143F
:040002000800683A50
:0400030000000000F9
:0400040000000000F8
:0400050000000000F7
:0400060000000000F6
:0400070000000000F5
:04000800DEFFED0426
:04000900DFC000153F
:04000A00D8400215C3
:04000B00D880031581
:04000C00D8C004153F
:04000D00D9000515FC
:04000E00D9400615BA
:04000F00D980071578
:04001000D9C0081536
:04001100000B307A36
:04001200DA000915F2
:04001300DA400A15B0
:04001400DA800B156E
:04001500DAC00C152C
:04001600DB000D15E9
:04001700DB400E15A7
:04001800DB800F1565
:04001900DBC0101523
:04001A00D9401115A3
:04001B00EBFFFF04F4
:04001C00DBC012151E
:04001D000009313A6B
:04001E002880004CEA
:04001F0010000326A4
:040020002000022694
:0400210000000FC00C
:0400220000000706CD
:04002300DF40121593
:04002400E8BFFF171B
:04002500E93FFF04AC
:04002600000015C001
:040027001000021EA5
:04002800EBFFFF04E7
:04002900DBC0121511
:04002A00D940111791
:04002B00DF40121789
:04002C00DFC000171A
:04002D002801707ABC
:04002E00D84002179D
:04002F00D88003175B
:04003000D8C0041719
:04003100D9000517D6
:04003200D940061794
:04003300D980071752
:04003400D9C0081710
:04003500DA000917CD
:04003600DA400A178B
:04003700DA800B1749
:04003800DAC00C1707
:04003900DB000D17C4
:04003A00DB400E1782
:04003B00DB800F1740
:04003C00DBC01017FE
:04003D00DEC013040A
:04003E00EF80083A0D
:04003F00DEFFFE04DE
:04004000DFC0011507
:04004100DC000015CA
:040042000009313A46
:040043000400003481
:0400440084158D048E
:040045000005883AF0
:0400460000C00044B2
:0400470020CA703A21
:0400480028000B265B
:04004900100490FA15
:04004A008085883AEB
:04004B0010C00017CA
:04004C001100011787
:04004D00183EE83A37
:04004E000009313A3A
:04004F00203FF51E3B
:04005000DFC00117F5
:04005100DC000017B8
:04005200DEC0020406
:04005300F800283A4F
:040054001806907A80
:0400550010800044D3
:04005600003FF00671
:04005700D0A2A41778
:04005800200B883AB7
:04005900100003266A
:04005A00000D883AD3
:04005B00013FFFC49E
:04005C001000683AEE
:04005D00003DA03A88
:04005E000005883AD7
:04005F00F800283A43
:0400600006C00034A2
:04006100DEE00014C9
:0400620006800034E0
:04006300D6B2DE141F
:0400640000800034E4
:040065001095761468
:0400660000C00034A2
:0400670018D5CD14C7
:0400680010C003269B
:04006900100000156E
:04006A0010800104FD
:04006B0010FFFD364F
:04006C0000036E40DF
:04006D000003768096
:04006E00003FFF064A
:04006F0000C0404449
:0400700000800134D7
:0400710010CC00357A
:0400720010800337C0
:040073001005D43A66
:04007400108003CC29
:0400750010FFFF84F5
:0400760018C000E8C6
:0400770018001B1E34
:0400780000C001348F
:04007900188C0135A9
:04007A0000C001447D
:04007B0000800134CC
:04007C0010CC02356D
:04007D0000C000447B
:04007E0010CC03356A
:04007F00008000B449
:040080001088880458
:0400810000C0013486
:04008200188C04359D
:0400830000C2BB04F8
:0400840000800134C3
:0400850010CC053561
:0400860010800337AC
:040087001005D63A50
:040088001080004C98
:0400890010000D2630
:04008A0000C14F84DE
:04008B0000800134BC
:04008C0010CC063559
:04008D0000800134BA
:04008E0010800337A4
:04008F0000C0013478
:040090001080005488
:04009100188003359B
:04009200F800283A10
:0400930000C0008425
:0400940000800134B3
:0400950010CC013555
:04009600003FE3063E
:0400970000DC0F84F6
:04009800003FF2062D
:04009900DEFFFF0483
:04009A00DFC00015AE
:04009B0000001BC086
:04009C0000015AC045
:04009D0000009EC001
:04009E00DFC00017A8
:04009F00DEC00104BA
:0400A00000015841C2
:0400A1002008943A65
:0400A20000800134A5
:0400A3001100003513
:0400A400F800283AFE
:0400A500DEFFFE0478
:0400A600DFC00115A1
:0400A700DC00001564
:0400A80000C006345A
:0400A900008001349E
:0400AA0010C000354D
:0400AB001080023788
:0400AC0000C001345B
:0400AD00108000546B
:0400AE00188002357F
:0400AF00010019042F
:0400B00000037E804B
:0400B1000080013496
:0400B2001080023781
:0400B30000FFFF84C7
:0400B40010C4703ACA
:0400B50000C0013452
:0400B6001880023577
:0400B70000002640DF
:0400B800043FFF847E
:0400B90000015C40A6
:0400BA00008001348D
:0400BB001080023778
:0400BC0000C001344B
:0400BD00108000545B
:0400BE00188002356F
:0400BF00010019041F
:0400C00000037E803B
:0400C1000080013486
:0400C2001080023771
:0400C30000C0013444
:0400C4001404703A76
:0400C5001880023568
:0400C60000004C40AA
:0400C7000100FA0436
:0400C80000037E8033
:0400C900003FEF06FF
:0400CA00008004347A
:0400CB0010BFFFC49F
:0400CC002088703ADE
:0400CD00D0A298170E
:0400CE00DEFFFC0451
:0400CF00DC800215BA
:0400D000DFC0031575
:0400D100DC400115F9
:0400D200DC00001539
:0400D3002825883A1A
:0400D40011000B35D7
:0400D500D0E29817C6
:0400D60018800A374D
:0400D7001080005441
:0400D80018800A354D
:0400D9000409C4044E
:0400DA00D0A2981701
:0400DB0014400A378C
:0400DC0001000044DB
:0400DD008823D0BAEA
:0400DE0000037E801D
:0400DF00843FFFC497
:0400E0008C40004C04
:0400E1008800011E74
:0400E200803FF71E46
:0400E300D0E29817B8
:0400E40018800A373F
:0400E5001005D13AF7
:0400E6008021003A3B
:0400E7001080004C39
:0400E8001404B03A12
:0400E90010000A1EDB
:0400EA0018C00C37F7
:0400EB0090C00015AC
:0400EC00D0E29817AF
:0400ED0018000A35B8
:0400EE00DFC0031755
:0400EF00DC80021798
:0400F000DC400117D8
:0400F100DC00001718
:0400F200DEC0040464
:0400F300F800283AAF
:0400F40000F7ABB4B2
:0400F50018EFBBC481
:0400F60000BFFFC484
:0400F700003FF306CD
:0400F800008002344E
:0400F9002089883A98
:0400FA00000032814F
:0400FB00D0A29B17DD
:0400FC00DEFFFB0424
:0400FD0001000234C8
:0400FE00D80B883A59
:0400FF002100400498
:04010000DFC0041543
:04010100DC400315C6
:04010200DC00021506
:04010300D88001158A
:04010400D80000150A
:040105000000328044
:0401060010000C26B3
:04010700008001343F
:0401080010844037E8
:0401090000F80034C6
:04010A0018FFFFC417
:04010B0010C4703A72
:04010C0000C00134FA
:04010D0018844035DD
:04010E000021883A0A
:04010F00D8C001173C
:04011000D0A29B17C7
:040111001880192613
:04011200000248405F
:04011300D880000B85
:04011400044000742F
:04011500040040049E
:040116008806C03A5D
:040117001886703A9C
:04011800183FEE2678
:0401190010800058FA
:04011A001000061EAD
:04011B00008001342B
:04011C0010844037D4
:04011D0000C00134E9
:04011E001088003411
:04011F0018844035CB
:04012000003FEE06A8
:04012100DC000017E7
:040122008020D53A2A
:04012300803FE32610
:04012400D80B883A32
:040125008009883A8B
:0401260000003E0097
:04012700103FDF1E88
:04012800D880000B70
:040129008C7FFFC404
:04012A00003FEB06A1
:04012B008005883A89
:04012C00DFC0041715
:04012D00DC40031798
:04012E00DC000217D8
:04012F00DEC0050425
:04013000F800283A71
:04013100D0A29B17A6
:04013200DEFFEE04FA
:04013300DFC0111503
:04013400D8800C154E
:040135000080013411
:04013600DCC0101504
:04013700DC800F1544
:04013800DC400E1584
:04013900DC000D15C4
:04013A0010800437F6
:04013B00D0A29815A1
:04013C0010000B1E86
:04013D000080013409
:04013E0010844037B2
:04013F0000F0003498
:0401400018FFFFC4E1
:0401410010C4703A3C
:0401420000C00134C4
:0401430018844035A7
:04014400D8C00C17FC
:04014500D0A29B1792
:040146001880A9264E
:04014700000248402A
:0401480000C00834B7
:0401490010C5883A1B
:04014A00D0A2981592
:04014B0000800134FB
:04014C0010844037A4
:04014D0000C00134B9
:04014E0010900034D9
:04014F00188440359B
:0401500000800134F6
:04015100108440379F
:04015200100067161C
:04015300D940020489
:040154000100023470
:04015500D8000215B7
:0401560000003280F3
:040157001023883AAF
:04015800D880021732
:0401590000C00134AD
:04015A0018843F3591
:04015B008800031EF7
:04015C0010BFFFCC05
:04015D0000E0219409
:04015E0010C008269F
:04015F0000800134E7
:040160001084403790
:0401610000FE003468
:0401620018FFFFC4BF
:0401630010C4703A1A
:0401640000C00134A2
:040165001884403585
:04016600000053063C
:0401670000800134DF
:040168001084403788
:0401690000C001349D
:04016A0010820034CB
:04016B00188440357F
:04016C00D8000215A0
:04016D0000003EC090
:04016E0010004D1E12
:04016F000025883AA5
:0401700001800A04FC
:04017100000B883ABD
:04017200D9000204AA
:04017300D80000159B
:0401740000023280D3
:0401750000003EC088
:040176001021883A92
:0401770010004F26FF
:04017800D940020464
:04017900110001046C
:04017A0000003E0043
:04017B00D940030460
:04017C0081000204F8
:04017D0000003E0040
:04017E00D94004045C
:04017F0081000304F4
:0401800000003E003D
:04018100D940050458
:0401820081000404F0
:0401830000003E003A
:04018400D940060454
:0401850081000504EC
:0401860000003E0037
:04018700D940070450
:0401880081000604E8
:0401890000003E0034
:04018A00D94008044C
:04018B0081000704E4
:04018C0000003E0031
:04018D00D940090448
:04018E0081000804E0
:04018F0000003E002E
:04019000D9400A0444
:0401910081000904DC
:0401920000003E002B
:04019300D9400B0440
:0401940081000A04D8
:0401950000003E0028
:04019600D8C00217B4
:0401970000800134AF
:0401980010C4413519
:04019900D8C00317B0
:04019A0010C4423516
:04019B00D8C00417AD
:04019C0010C4433513
:04019D00D8C00517AA
:04019E0010C4443510
:04019F00D8C00617A7
:0401A00010C445350D
:0401A100D8C00717A4
:0401A20010C446350A
:0401A300D8C00817A1
:0401A40010C4473507
:0401A500D8C009179E
:0401A60010C4483504
:0401A700D8C00A179B
:0401A80010C4493501
:0401A900D8C00B1798
:0401AA0010C44A35FE
:0401AB000100023419
:0401AC00D940010431
:0401AD0021000D041C
:0401AE00D80001155F
:0401AF00000032809A
:0401B00010001826FD
:0401B1000080013495
:0401B200108440373E
:0401B30000FC003418
:0401B40018FFFFC46D
:0401B50010C4703AC8
:0401B60000C0013450
:0401B7001884403533
:0401B8008C7FFFD861
:0401B9008800281E74
:0401BA00D0229815A2
:0401BB00003F880673
:0401BC00D940020420
:0401BD001100010428
:0401BE0000003E00FF
:0401BF0010BFFFE08E
:0401C000103FAE1E20
:0401C100DC800217C5
:0401C2000082003483
:0401C30010BC0C045C
:0401C40090A4703A59
:0401C5009024C03A88
:0401C600003FA90647
:0401C700047FFFC4EE
:0401C800003FE2060C
:0401C900D8800103D6
:0401CA0004C0400429
:0401CB0004000D041B
:0401CC009806C03A97
:0401CD001886703AE6
:0401CE00183FE226CE
:0401CF001080041880
:0401D0001000161EE7
:0401D1000080013475
:0401D200108440371E
:0401D30000C0013433
:0401D400108400345F
:0401D5001884403515
:0401D600D80B883A80
:0401D700810004841B
:0401D80000003E00E5
:0401D90010BFFFD87C
:0401DA00103FDD26CF
:0401DB00008001346B
:0401DC0010C44037D4
:0401DD00D880000BBB
:0401DE0018FFFFEC1B
:0401DF0010C4B03A5E
:0401E00000C0013426
:0401E1001884403509
:0401E200903FD7264D
:0401E3000080013463
:0401E400108440370C
:0401E50010A0003432
:0401E600003F7D0653
:0401E700DC000143F4
:0401E800803FC82666
:0401E900D9400104F4
:0401EA008009883AC6
:0401EB0000003E00D2
:0401EC00103FC41EDE
:0401ED00D8800103B2
:0401EE009CFFFFC4AF
:0401EF00003FDC06EB
:0401F000DFC0111744
:0401F100DCC0101747
:0401F200DC800F1787
:0401F300DC400E17C7
:0401F400DC000D1707
:0401F500DEC0120452
:0401F600F800283AAB
:0401F700008001344F
:0401F800108806372E
:0401F9001005D0BA63
:0401FA00008001166A
:0401FB00F800283AA6
:0401FC0000C001340A
:0401FD0018C80537E2
:0401FE0010BFFFC46B
:0401FF00003FFA06BD
:04020000DEFFFB041E
:04020100DC80021586
:04020200DC400115C6
:04020300DC00001506
:04020400DFC004153E
:04020500DCC0031541
:040206002025883AED
:040207003021883AE0
:040208000440190491
:04020900008001343C
:04020A0014C80237DB
:04020B0001001904D1
:04020C009CC000A8EA
:04020D0000037E80EC
:04020E008C7FFFC41E
:04020F009800031E32
:04021000883FF81E0D
:040211000083C004A2
:0402120000000B06D7
:04021300883FFD26FD
:0402140000007DC0A9
:040215008020933A78
:040216000080203410
:0402170010BC000413
:0402180080A0703A18
:040219008400065403
:04021A00008001342B
:04021B00140800358E
:04021C00148801350C
:04021D000005883A16
:04021E00DFC0041722
:04021F00DCC0031725
:04022000DC80021765
:04022100DC400117A5
:04022200DC000017E5
:04022300DEC0050430
:04022400F800283A7C
:04022500DEFFFA04FA
:04022600DCC0031520
:04022700DC80021560
:04022800DC400115A0
:04022900DFC0051518
:04022A00DD000415DA
:04022B00DC000015DE
:04022C002027883AC5
:04022D002825883ABE
:04022E00044019046B
:04022F0001001904AD
:0402300000037E80C9
:040231000080013414
:0402320010880837F1
:040233001080004CEB
:040234008C7FFFC4F8
:0402350010000B1E8C
:04023600883FF81EE7
:04023700053FFFC4BC
:04023800A005883A5B
:04023900DFC0051706
:04023A00DD000417C8
:04023B00DCC0031709
:04023C00DC80021749
:04023D00DC40011789
:04023E00DC000017C9
:04023F00DEC0060413
:04024000F800283A60
:040241000400190498
:04024200883FF426D7
:040243000100190499
:0402440000037E80B5
:040245000080013400
:0402460010880637DF
:0402470010C0004C97
:04024800843FFFC42C
:040249001800022671
:04024A001004D0BA12
:04024B001000021E7F
:04024C00803FF61EDB
:04024D00003FE9067F
:04024E00803FE826DF
:04024F0000800134F6
:040250001408053752
:040251008501FFCC58
:04025200A03FE51EC6
:040253008020D33AFA
:040254008401FFCC56
:040255009C000015F4
:04025600803FE126DE
:040257000440190442
:040258000100190484
:0402590000037E80A0
:04025A0000800134EB
:04025B0010880637CA
:04025C001004D0BA00
:04025D008C7FFFC4CF
:04025E001400022E58
:04025F00883FF81EBE
:04026000003FD6067F
:04026100883FD526D7
:040262000137ABB401
:040263000007883ACE
:0402640001FE003463
:04026500212FBBC4C6
:0402660018BFD126C6
:04026700014001341D
:0402680029880537A5
:0402690031CB883AD3
:04026A0029404030B7
:04026B002800012640
:04026C00200D883A9F
:04026D00180A90BA21
:04026E0018C0004470
:04026F00914B883AED
:0402700029800015CC
:04027100003FF40650
:0402720000800134D3
:0402730000C0013492
:0402740010840404EA
:0402750001002F84D1
:0402760018C4120492
:04027700110000353D
:0402780010800104ED
:0402790010FFFD1E57
:04027A00F800283A26
:04027B0000800134CA
:04027C0010840337B0
:04027D0000C0013488
:04027E001080005498
:04027F0018840335A7
:04028000F800283A20
:0402810000800134C4
:0402820010840004E0
:04028300288B883A02
:040284000007883AAD
:0402850000BFC044B2
:040286001900011E3C
:04028700F800283A19
:040288002980003792
:040289001180010ED1
:04028A003005883A79
:04028B0018C0004453
:04028C002940010400
:04028D00003FF80630
:04028E00DEFFF20499
:04028F00D0A29B1747
:04029000DC00091570
:040291002021883A66
:04029200802090BA7E
:04029300DC800B15EB
:040294002825883A57
:0402950001400034F0
:0402960001800704D8
:0402970029502A04BC
:04029800D900010484
:04029900DCC00C15A4
:04029A00DC400A1525
:04029B00DFC00D159E
:04029C00D8800815E9
:04029D0000022280B9
:04029E00808009044F
:04029F0016E1883AA2
:0402A00084FFF817C8
:0402A100D80000156C
:0402A200044000C450
:0402A3000180004492
:0402A40001400644CB
:0402A5009809883AF2
:0402A60000008000D4
:0402A7001083C018E8
:0402A80010000B1E19
:0402A9000100190433
:0402AA0000037E804F
:0402AB000403C00484
:0402AC008C7FFFC480
:0402AD00883FF51E73
:0402AE008000131E9B
:0402AF00D8800017DC
:0402B000D900081752
:0402B100D0E29B17E5
:0402B20020C0112631
:0402B30000024840BD
:0402B400900B883AE9
:0402B500D809883AA2
:0402B600000089407B
:0402B7001021883A50
:0402B80010BFFD4432
:0402B900108000B001
:0402BA001000041E0E
:0402BB0080807FE0E0
:0402BC001000021E0E
:0402BD008080BFD8A6
:0402BE00103FEF1EE0
:0402BF00010019041D
:0402C00000037E8039
:0402C100003FEA060A
:0402C20000BFFFC4B6
:0402C300003FEC0606
:0402C400DFC00D1773
:0402C500DCC00C1776
:0402C600DC800B17B6
:0402C700DC400A17F6
:0402C800DC00091736
:0402C900DEC00E0481
:0402CA00F800283AD6
:0402CB00008001347A
:0402CC001080013766
:0402CD0000C0013438
:0402CE001080005448
:0402CF00188001355D
:0402D000F800283AD0
:0402D100DEFFEF0459
:0402D200D0A29B1704
:0402D300DC0007152F
:0402D4000437ABB48C
:0402D500842FBBC4F3
:0402D600DC800915AA
:0402D7002825883A14
:0402D800D80B883A7D
:0402D900DF000F151E
:0402DA00DDC00E1560
:0402DB00DFC010155B
:0402DC00DD800D159F
:0402DD00DD400C15DF
:0402DE00DD000B151F
:0402DF00DCC00A1560
:0402E000DC400815E1
:0402E1003039883AEE
:0402E200382F883AEF
:0402E300D8800615A4
:0402E400DC00001525
:0402E500DC00011523
:0402E600DC00021521
:0402E700DC0003151F
:0402E800DC0004151D
:0402E900DC0005151B
:0402EA000000A380ED
:0402EB000080480E39
:0402EC0005000134D4
:0402ED00102D883A0E
:0402EE00D827883A4B
:0402EF00002B883A1E
:0402F000A50400045D
:0402F1009C40001716
:0402F200893FFFCC75
:0402F3002120001CAA
:0402F40021200004C1
:0402F50020002C16A3
:0402F6002009D23ACF
:0402F7008C40200C0B
:0402F80000021200EE
:0402F9001009883A26
:0402FA00180B883A1B
:0402FB00880024262D
:0402FC0001CFF83402
:0402FD00000D883A2E
:0402FE00000179C0C2
:0402FF00100D883A1C
:04030000180F883A10
:040301003009883AFD
:04030200380B883AF2
:04030300944000170B
:04030400000179C0BB
:040305001009883A19
:04030600180B883A0E
:040307008D23883A80
:0403080000020A00E5
:0403090088800035B3
:04030A00A80490BAF9
:04030B0090C0001787
:04030C00E085883AC6
:04030D001080001745
:04030E001D07883A05
:04030F0018C00037DB
:040310001505883A0D
:040311001080003721
:040312001C000226A3
:0403130010C0010E07
:040314000000B2C073
:04031500AD400044B3
:040316009CC0010482
:0403170094800104C9
:04031800B57FD81EB7
:04031900000B883A13
:04031A00B809883A5C
:04031B00000153404A
:04031C00D8C0061728
:04031D00D0A29B17B8
:04031E001880172606
:04031F000002484050
:04032000000F883A08
:04032100003FDB06B8
:040322000463C83A6E
:04032300893FFFCC43
:040324002120001C78
:04032500212000048F
:040326002009D23A9E
:040327008C40200CDA
:0403280000021200BD
:040329001009883AF5
:04032A00180B883AEA
:04032B00880006261A
:04032C0001CFF834D1
:04032D00000D883AFD
:04032E00000179C091
:04032F00100D883AEB
:0403300019E0003C94
:04033100003FCF06B4
:04033200000F883AF6
:04033300003FF90688
:04033400017FFFC482
:04033500003FE4069B
:04033600DFC01017FD
:04033700DF000F17BD
:04033800DDC00E17FF
:04033900DD800D173F
:04033A00DD400C177F
:04033B00DD000B17BF
:04033C00DCC00A1700
:04033D00DC80091740
:04033E00DC40081780
:04033F00DC000717C0
:04034000DEC0110406
:04034100F800283A5E
:040342000180003402
:040343000140003441
:04034400DEFFFE04D6
:04034500000F883AE3
:0403460031908A0464
:0403470029508E04A7
:040348000009883AE6
:04034900DFC00115FB
:04034A00DC000015BE
:04034B000000B440BA
:04034C0001C00044A8
:04034D00D1A0120425
:04034E00D160130463
:04034F000100004465
:040350000000B440B5
:0403510001C0008463
:04035200D1A0100422
:04035300D160110460
:040354000100008420
:040355000000B440B0
:0403560001C000C41E
:04035700D1A00C0421
:04035800D1600E045E
:04035900010000C4DB
:04035A000000B440AB
:04035B0001C00104D8
:04035C00D1A0080420
:04035D00D1600A045D
:04035E000100010495
:04035F000000B440A6
:0403600001C0014493
:04036100D1A004041F
:04036200D16006045C
:040363000100014450
:040364000000B440A1
:0403650001C001844E
:04036600D1A000041E
:04036700D16002045B
:04036800010001840B
:040369000000B4409C
:04036A0001401D042D
:04036B000100010488
:04036C000000A040AD
:04036D000140230424
:04036E000100024444
:04036F001021883A97
:040370000000A040A9
:0403710000C0013493
:040372001C041C3516
:040373001884223593
:04037400DFC00117CE
:04037500DC00001791
:04037600DEC00204DF
:04037700F800283A28
:04037800DEFFF804A8
:04037900D0A29B175C
:04037A00DC40061548
:04037B0024403FCC0F
:04037C00213FFFC45A
:04037D0021003FCC50
:04037E00DFC00715C0
:04037F00DC00051584
:04038000D880041508
:04038100210000E86F
:040382002000101E29
:040383002C3FE00427
:04038400882290BA81
:0403850001400034FF
:04038600D809883AD0
:0403870001800404E9
:0403880029503104C3
:0403890000022280CC
:04038A00888005045E
:04038B0016E3883AB3
:04038C0088FFFB17D4
:04038D0080803FCC61
:04038E00D900041777
:04038F0010C5883AD3
:04039000D0E29B1705
:0403910020C003265F
:0403920000024840DD
:040393002821883A5B
:04039400003FEF0631
:04039500DFC00717A7
:04039600DC4006172A
:04039700DC0005176A
:04039800DEC00804B7
:04039900F800283A06
:04039A0000B7ABB449
:04039B0010AFBBC420
:04039C0000C0013468
:04039D002000091E15
:04039E001884123578
:04039F0000801304C3
:0403A00000C0013464
:0403A10018C4000478
:0403A20010C5883AC0
:0403A30000F7ABB400
:0403A40018EFBBC4CF
:0403A50010C000354F
:0403A600F800283AF9
:0403A700188414356D
:0403A80000801504B8
:0403A900003FF60615
:0403AA0000B7ABB439
:0403AB0010AFBBC410
:0403AC0000C0013458
:0403AD002000091E05
:0403AE0018842C354E
:0403AF0000802D0499
:0403B00000C0013454
:0403B10018C4000468
:0403B20010C5883AB0
:0403B30000F7ABB4F0
:0403B40018EFBBC4BF
:0403B50010C000353F
:0403B600F800283AE9
:0403B70018842E3543
:0403B80000802F048E
:0403B900003FF60605
:0403BA00DEFFFF045F
:0403BB0029403FCCCA
:0403BC0021003FCC11
:0403BD00DFC0001588
:0403BE000000DE005D
:0403BF00D0E29A17D7
:0403C00010C5883AA2
:0403C1001080002B7D
:0403C200DFC0001781
:0403C300DEC0010493
:0403C400F800283ADB
:0403C50020BFFFCC8A
:0403C600DEFFFE0454
:0403C70010A0001C66
:0403C800DC00001540
:0403C900DFC001157B
:0403CA0010A000047B
:0403CB002021883A2B
:0403CC0010001016F7
:0403CD00213FFFCC01
:0403CE002008D23AF7
:0403CF008400200C7A
:0403D0000002120015
:0403D1001009883A4D
:0403D200180B883A42
:0403D3008000072679
:0403D40001CFF83429
:0403D500000D883A55
:0403D600000179C0E9
:0403D700DFC001176B
:0403D800DC0000172E
:0403D900DEC002047C
:0403DA00F800283AC5
:0403DB00000F883A4D
:0403DC00003FF806E0
:0403DD000121C83AF8
:0403DE00813FFFCC90
:0403DF002008D23AE6
:0403E0008400200C69
:0403E1000002120004
:0403E2001009883A3C
:0403E300180B883A31
:0403E400800005266A
:0403E50001CFF83418
:0403E600000D883A44
:0403E700000179C0D8
:0403E80018E0003CDD
:0403E900003FED06DE
:0403EA00000F883A3E
:0403EB00003FFA06CF
:0403EC002004923A1D
:0403ED00213FFFCCE1
:0403EE002008D23AD7
:0403EF001104B03A0B
:0403F000F800283AAF
:0403F100DEFFFC042B
:0403F200DC400115D5
:0403F300DC00001515
:0403F400DFC003154E
:0403F500DC80021591
:0403F6002823883AF6
:0403F7003021883AEF
:0403F800288000E871
:0403F9002000081EBA
:0403FA0010000F1EC2
:0403FB00300B883A01
:0403FC00890002442E
:0403FD00843FFFE05A
:0403FE000001534067
:0403FF0080001F2635
:04040000048001C4AF
:0404010000000E06E3
:040402001000151EB3
:04040300300B883AF8
:040404008900034424
:04040500843FFFE051
:04040600000153405E
:040407008000172634
:040408000480020466
:0404090000000606E3
:04040A00048001C4A5
:04040B0001000304E5
:04040C00800B883A9F
:04040D00843FFFD851
:04040E000001534056
:04040F0080000B1E40
:04041000017FFFC4A5
:040411009009883A8C
:04041200DFC003172D
:04041300DC80021770
:04041400DC400117B0
:04041500DC000017F0
:04041600DEC004043C
:04041700000153414C
:040418000480020456
:0404190001000404D6
:04041A00003FF106A8
:04041B008C4000D839
:04041C008800021E34
:04041D00000B883A0E
:04041E00003FF206A3
:04041F00DFC0031720
:04042000DC80021763
:04042100DC400117A3
:04042200DC000017E3
:04042300DEC004042F
:04042400F800283A7A
:04042500DEFFFF04F3
:040426000009883A07
:04042700DFC000151D
:040428000000E6806A
:04042900010000448A
:04042A00DFC0001718
:04042B00DEC001042A
:04042C000000E68165
:04042D00208000A883
:04042E0010011D1E7E
:04042F00DEFFFC04EC
:04043000DC000015D7
:04043100DFC0031510
:04043200DC80021553
:04043300DC40011593
:040434002021883AC1
:04043500008001340E
:040436002000101E74
:0404370010800637F4
:04043800D0A29A159F
:0404390010000F1E82
:04043A008009883A73
:04043B000000E68057
:04043C008009883A71
:04043D000000EA8051
:04043E0001BFFFC437
:04043F00000B883AEC
:040440008009883A6D
:04044100DFC00317FE
:04044200DC80021741
:04044300DC40011781
:04044400DC000017C1
:04044500DEC004040D
:040446000000FC4175
:0404470010800737E3
:04044800003FEF067C
:0404490000C00834B3
:04044A0010C5883A17
:04044B00000D883ADE
:04044C00000B883ADF
:04044D008009883A60
:04044E00D0A29A1589
:04044F000000FC406D
:04045000D0E29A1745
:0404510018800A37CE
:0404520018C00B378C
:040453001080004CC9
:040454001000072667
:040455008009883A58
:040456000000E6803C
:040457008009883A56
:040458000000EA8036
:0404590001BFFFC41C
:04045A000140004419
:04045B00003FE40674
:04045C00000D883ACD
:04045D008009883A50
:04045E000140004415
:04045F000000FC405D
:04046000000B883ACB
:040461000009883ACC
:040462000000DE00B8
:04046300D0E29A1732
:0404640010C5883AFD
:04046500144000231C
:040466008C403FCCBB
:04046700888007E89A
:040468001000051E5D
:0404690000AFBFB46D
:04046A0010B3FFC408
:04046B001445D83A22
:04046C001080004CB0
:04046D00100007264E
:04046E008009883A3F
:04046F000000E68023
:040470008009883A3D
:040471000000EA801D
:0404720001BFFFC403
:0404730001400084C0
:04047400003FCB0674
:04047500000D883AB4
:0404760001400084BD
:040477008009883A36
:040478000000FC4044
:040479008880062051
:04047A001000101E40
:04047B008880066807
:04047C001000091E45
:04047D00888003A8C8
:04047E001000051E47
:04047F008C40032882
:04048000883FED269E
:0404810000800034C3
:040482001090A6042C
:040483000000090666
:040484008C40046044
:04048500003FFA0634
:040486008C4007A0FF
:04048700883FE6269E
:0404880000800034BC
:040489001090920439
:04048A000000020666
:04048B0000800034B9
:04048C0010909C042C
:04048D0011400143D6
:04048E001100010355
:04048F00D0A2991549
:040490000000EE80FA
:04049100113FFFCC4C
:040492002120001C09
:040493002120000420
:040494000000FB0069
:04049500113FFFCC48
:040496002120001C05
:04049700212000041C
:040498002000112609
:040499000000F1402E
:04049A001009883A83
:04049B00180B883A78
:04049C00100D883A7D
:04049D00180F883A72
:04049E00000179C020
:04049F001009883A7E
:0404A000180B883A73
:0404A10000020A004B
:0404A20080002E2682
:0404A30000C02E0463
:0404A400010001341E
:0404A500210400042A
:0404A6001907883A70
:0404A7001880003584
:0404A8000025883A69
:0404A90000000D063C
:0404AA008000242684
:0404AB0000802E049B
:0404AC0000C0013457
:0404AD0018C400046B
:0404AE0010C5883AB3
:0404AF0000F7ABB4F3
:0404B00018EFBBC4C2
:0404B10010C0003542
:0404B20001BFFFC4C3
:0404B300014000C440
:0404B4008009883AF9
:0404B5000000FC4007
:0404B60004BFFFC4BC
:0404B700D0A299171F
:0404B80011400343A9
:0404B9001100030328
:0404BA000000EE80D0
:0404BB00113FFFCC22
:0404BC002120001CDF
:0404BD0021200004F6
:0404BE000000FB003F
:0404BF0010FFFFC467
:0404C00018FFFFCC56
:0404C1000100013401
:0404C20018FFFFA878
:0404C300210400040C
:0404C40018000E1EF0
:0404C5008000462647
:0404C60000C02F043F
:0404C7001923883A33
:0404C8000140028469
:0404C900113FFFCC14
:0404CA0000016DC000
:0404CB0010BFFFCC93
:0404CC0088800035EF
:0404CD00000D883A5C
:0404CE0000000F0615
:0404CF0000802C0479
:0404D000003FDB0608
:0404D10000C02C0437
:0404D200003FD10610
:0404D3008000362649
:0404D40000802F0471
:0404D50000F7ABB4CD
:0404D6001105883A4A
:0404D70018EFBBC49B
:0404D80010C000351B
:0404D90001BFFFC49C
:0404DA00014000C419
:0404DB008009883AD2
:0404DC000000FC40E0
:0404DD0001BFFFC498
:0404DE00348CB03A70
:0404DF008009883ACE
:0404E000014000C413
:0404E1000000FC40DB
:0404E200D462991730
:0404E3008940054304
:0404E4008900050383
:0404E5000000DE0035
:0404E600D0E29A17AF
:0404E70010C5883A7A
:0404E80010C000231D
:0404E900008000444B
:0404EA0089000583FD
:0404EB001104983A26
:0404EC0010C4703A8E
:0404ED0010803FCC70
:0404EE0010005A1E82
:0404EF0089400843F5
:0404F0008900080374
:0404F1000000EE8099
:0404F200113FFFCCEB
:0404F3002120001CA8
:0404F40021200004BF
:0404F5000000FB0008
:0404F600113FFFCCE7
:0404F7002120001CA4
:0404F80021200004BB
:0404F90020001426A5
:0404FA000000F140CD
:0404FB001009883A22
:0404FC00180B883A17
:0404FD00100D883A1C
:0404FE00180F883A11
:0404FF00000179C0BF
:040500001009883A1C
:04050100180B883A11
:0405020000020A00E9
:04050300800030261E
:0405040000C014041B
:0405050001000134BC
:0405060021040004C8
:040507001907883A0E
:040508001880003522
:0405090000000C06DC
:04050A0000802D043C
:04050B00003FC906DE
:04050C0000C02D04FA
:04050D00003FB906EC
:04050E008000232620
:04050F000080140450
:0405100000C00134F2
:0405110018C4000406
:0405120010C5883A4E
:0405130000F7ABB48E
:0405140018EFBBC45D
:0405150010C00035DD
:04051600D0A29917BF
:040517001140064346
:0405180011000603C5
:040519000000EE8070
:04051A00113FFFCCC2
:04051B002120001C7F
:04051C002120000496
:04051D000000FB00DF
:04051E00113FFFCCBE
:04051F002120001C7B
:040520002120000492
:04052100200014267C
:040522000000F140A4
:040523001009883AF9
:04052400180B883AEE
:04052500100D883AF3
:04052600180F883AE8
:04052700000179C096
:040528001009883AF4
:04052900180B883AE9
:04052A0000020A00C1
:04052B0080001B1E13
:04052C0000C01304F4
:04052D000100013494
:04052E0021040004A0
:04052F001907883AE6
:0405300018800035FA
:0405310000000C06B4
:04053200008012042F
:04053300003FDC06A3
:0405340000C01204ED
:04053500003FCF06AE
:0405360080000E1E15
:040537000080130429
:0405380000C00134CA
:0405390018C40004DE
:04053A0010C5883A26
:04053B0000F7ABB466
:04053C0018EFBBC435
:04053D0010C00035B5
:04053E00D0229A1518
:04053F00DFC00317FF
:04054000DC80021742
:04054100DC40011782
:04054200DC000017C2
:04054300DEC004040E
:04054400F800283A59
:040545000080150419
:04054600003FF1067B
:0405470000C01504D7
:04054800003FE40686
:040549008009883A63
:04054A000000E68047
:04054B00003FF20675
:04054C00F800283A51
:04054D0000800134F5
:04054E0010C401379D
:04054F0000800044E4
:040550001104983AC0
:040551002800091E57
:040552001884B03A1F
:0405530000C000B430
:0405540018FFFFC4C9
:0405550010C8703A20
:0405560020C0011EA2
:0405570010A00034BC
:0405580000C00134AA
:0405590018840135CC
:04055A00F800283A43
:04055B000084303AAE
:04055C0010C4703A1D
:04055D0000E0003486
:04055E0018FFFFC4BF
:04055F0010C4703A1A
:04056000003FF7065B
:0405610000800134E1
:040562000137ABB4FE
:0405630000C001349F
:0405640010841C04DF
:04056500212FBBC4C3
:0405660018C4300481
:04056700110000354A
:0405680010800104FA
:0405690010FFFD1E64
:04056A00F800283A33
:04056B00DEFFFF04AC
:04056C00DFC00015D7
:04056D0000009C806E
:04056E00DFC00017D3
:04056F00DEC00104E5
:04057000000109413C
:04057100DEFFFF04A6
:04057200DFC00015D1
:040573000000D08034
:040574000009883AB8
:0405750000010B4036
:04057600010000443C
:04057700DFC00017CA
:04057800DEC00104DC
:0405790000010B4131
:04057A0020001A162D
:04057B00000F883AAB
:04057C002800020E43
:04057D00014BC83A2C
:04057E0039C0005C24
:04057F00200D883A89
:0405800000C0004473
:040581002900092E16
:0405820000800804E9
:0405830000C0004470
:04058400000001066C
:04058500100012262A
:04058600294B883A3B
:0405870010BFFFC4DE
:0405880018C7883ACE
:04058900293FFB36D5
:04058A0018000D2622
:04058B000005883AA5
:04058C0031400236C2
:04058D00314DC83AEA
:04058E0010C4B03AAB
:04058F001806D07A00
:04059000280AD07AEB
:04059100183FFA1EF7
:040592003800012606
:040593000085C83ADD
:04059400F800283A09
:040595000109C83A56
:0405960001C000445C
:04059700003FE40637
:040598000005883A98
:04059900003FF80621
:04059A002000171610
:04059B00000F883A8B
:04059C002005883A74
:04059D002800010E23
:04059E00014BC83A0B
:04059F0000C0004454
:0405A0002900092EF7
:0405A10001800804C9
:0405A20000C0004451
:0405A300000001064D
:0405A40030001026ED
:0405A500294B883A1C
:0405A60031BFFFC49E
:0405A70018C7883AAF
:0405A800293FFB36B6
:0405A90018000B2605
:0405AA001806D07AE5
:0405AB0011400136C4
:0405AC001145C83AF3
:0405AD00280AD07ACE
:0405AE00183FFB1ED9
:0405AF0038000126E9
:0405B0000085C83AC0
:0405B100F800283AEC
:0405B2000109C83A39
:0405B30001C000443F
:0405B400003FE70617
:0405B5002005883A5B
:0405B600003FF80604
:0405B700200D883A51
:0405B8002900152ED3
:0405B90028001416EC
:0405BA0000800804B1
:0405BB0000C0004438
:0405BC000000020633
:0405BD0010000E26F6
:0405BE0028000416F7
:0405BF00294B883A02
:0405C00010BFFFC4A5
:0405C10018C7883A95
:0405C200293FFA369D
:0405C30018000826EE
:0405C4000005883A6C
:0405C5003140023689
:0405C600314DC83AB1
:0405C70010C4B03A72
:0405C8001806D07AC7
:0405C900280AD07AB2
:0405CA00183FFA1EBE
:0405CB00F800283AD2
:0405CC000005883A64
:0405CD00F800283AD0
:0405CE0000C0004425
:0405CF00003FF406EF
:0405D0002005883A40
:0405D1002900132EBC
:0405D20028001216D5
:0405D3000180080497
:0405D40000C000441F
:0405D500000002061A
:0405D60030000C26BF
:0405D70028000416DE
:0405D800294B883AE9
:0405D90031BFFFC46B
:0405DA0018C7883A7C
:0405DB00293FFA3684
:0405DC0018000626D7
:0405DD001806D07AB2
:0405DE001140013691
:0405DF001145C83AC0
:0405E000280AD07A9B
:0405E100183FFB1EA6
:0405E200F800283ABB
:0405E3002005883A2D
:0405E400F800283AB9
:0405E50000C000440E
:0405E600003FF606D6
:0405E70000C0043418
:0405E80018FFFFC435
:0405E900DEFFFA0433
:0405EA002810D7FA04
:0405EB003804D53AC1
:0405EC0028D4703A65
:0405ED0038D2703A56
:0405EE00280AD53AC8
:0405EF00501490FA1A
:0405F000481290FA23
:0405F1003016D77A6F
:0405F200DC400115D3
:0405F300380ED7FAED
:0405F4002022D77A70
:0405F500DD0004150C
:0405F600DCC003154D
:0405F700DC0000150F
:0405F8001081FFCCA3
:0405F9002C01FFCC06
:0405FA00DFC0051544
:0405FB00DC80021589
:0405FC00201890FA39
:0405FD00301A90FA26
:0405FE004027883AD0
:0405FF0045003FCCA8
:040600008AA2B03AE0
:040601005A56B03A5B
:04060200808BC83AE7
:0406030041C0752657
:040604000140540E4F
:0406050010008B2630
:040606008081FFE010
:0406070010010D1EB3
:0406080028800E48F0
:040609001000C11EFE
:04060A005AC020347E
:04060B002880080833
:04060C001001461E75
:04060D00008008045D
:04060E001145C83A90
:04060F0058A4983A19
:040610006946D83A25
:040611006884983A27
:04061200594AD83A2F
:0406130090E4B03A85
:040614001004C03AD4
:0406150090A4B03AC3
:040616008963C83AF2
:0406170064A5C83AD4
:040618006485803A3B
:0406190088A3C83AB0
:04061A008880202C88
:04061B001000B826ED
:04061C000080203406
:04061D0010BFFFC447
:04061E0088A2703A04
:04061F008800D02659
:040620008809883A83
:0406210000021D8036
:04062200113FFE0482
:0406230000C0080407
:040624001905C83AB2
:040625009084D83AAB
:040626008922983A53
:040627009124983A48
:040628001444B03A8C
:040629002400FF1694
:04062A002409C83A9D
:04062B002100004466
:04062C001907C83AA8
:04062D0090CA983A9D
:04062E009122D83A03
:04062F00280AC03A9B
:0406300010C6983A1E
:04063100894AB03A08
:040632001122D83A7F
:040633000021883AE0
:040634001964B03A5B
:04063500908001CCE4
:040636001000072683
:04063700908003CCE0
:04063800108001200D
:040639001000041E8B
:04063A0090800104A7
:04063B0014A5803A48
:04063C008CA3883AC9
:04063D001025883AC2
:04063E008880202C64
:04063F001000C926B8
:040640008081FFA016
:0406410084000044ED
:040642001000841E02
:04064300013FE0345F
:04064400213FFFC48F
:040645008908703A76
:040646002004977A7B
:040647002008927A7B
:040648009024D0FA30
:0406490080C1FFCCA1
:04064A002008D33A77
:04064B001484B03A29
:04064C00A027883A21
:04064D001806953ABC
:04064E00982697FA59
:04064F001906B03A9E
:040650001CC6B03ADA
:04065100DFC00517EA
:04065200DD000417AC
:04065300DCC00317ED
:04065400DC8002172D
:04065500DC4001176D
:04065600DC000017AD
:04065700DEC00604F7
:04065800F800283A44
:040659003A803FCCD8
:04065A00280040260E
:04065B00140BC83A7A
:04065C008000E61E16
:04065D008B06B03A1E
:04065E001800C42696
:04065F0028FFFFC4AD
:0406600018017A26DD
:040661002941FFE04C
:0406620028019A1EB3
:0406630019000E4824
:0406640020010C1E47
:04066500180B883AAC
:0406660028C0080898
:040667001801521E06
:0406680000C00804C2
:040669001947C83A2B
:04066A0088E4983A4E
:04066B006148D83AD0
:04066C0060C6983A92
:04066D00894AD83AA4
:04066E009124B03AE9
:04066F001806C03A6F
:0406700090E4B03A28
:040671005957C83AD3
:040672006CA5C83A71
:040673006C9B803AC2
:040674005B63C83AC2
:040675003827883A60
:040676001021883A8D
:040677005029883A44
:04067800003FA10698
:0406790001405D0ED1
:04067A001000351E19
:04067B005B44B03AF2
:04067C001000A9269B
:04067D0028BFFFC4CF
:04067E0010004E26F4
:04067F002941FFE02E
:040680002801121E1D
:0406810010C00E484F
:040682001800311E0D
:04068300100B883A96
:0406840028800808BA
:040685001001181E2A
:0406860000800804E4
:040687001145C83A17
:0406880058A4983AA0
:040689006946D83AAC
:04068A006884983AAE
:04068B00594AD83AB6
:04068C0090E4B03A0C
:04068D001004C03A5B
:04068E0090A4B03A4A
:04068F008963883AB9
:04069000000024063C
:040691005B44B03ADC
:04069200100093269B
:0406930028BFFFC4B9
:040694001000F82634
:040695002941FFE018
:040696002800FC1E1E
:0406970010C00E4839
:040698001800321EF6
:04069900100B883A80
:04069A00003F7006A7
:04069B008080004417
:04069C001081FF8C3E
:04069D001000AB1E80
:04069E008B0AB03AD9
:04069F005B44B03ACE
:0406A0008000E71ED1
:0406A10028014126C5
:0406A2001001062617
:0406A3006365C83A89
:0406A4006485803AAF
:0406A5008AC7C83AFE
:0406A6001887C83AAF
:0406A7001880202C6B
:0406A80010017326A4
:0406A9006B25C83ABB
:0406AA005C57C83A97
:0406AB006C9B803A8A
:0406AC005B63C83A8A
:0406AD003827883A28
:0406AE005029883A0D
:0406AF00003F85067D
:0406B0008081FFE066
:0406B1001000631EB4
:0406B20028800E4846
:0406B3001000AA2663
:0406B400048000447A
:0406B5009325883AC7
:0406B6009305803AEE
:0406B70088A3883A52
:0406B8008880202CEA
:0406B90010001A26ED
:0406BA008400004474
:0406BB008081FFE05B
:0406BC0010000A1E02
:0406BD0000BFE03466
:0406BE0010BFFFC4A6
:0406BF009006D07A57
:0406C0008884703A80
:0406C100100897FA8C
:0406C2009480004CD4
:0406C3001C86B03AA7
:0406C4001022D07AB6
:0406C50020E4B03A43
:0406C600003F6E067D
:0406C70000C1FFC4AB
:0406C8000009883A63
:0406C9000005883A66
:0406CA00003F820665
:0406CB000480004463
:0406CC00003F4A069B
:0406CD006365883A9F
:0406CE008AD7883A05
:0406CF009305803AD5
:0406D00058A3883A69
:0406D1008880202CD1
:0406D2001001061EEF
:0406D30004000044DB
:0406D400908001CC45
:0406D500103F611E53
:0406D60000006906B1
:0406D700280056267B
:0406D800140BC83AFD
:0406D90080008626F1
:0406DA0010C1FFE06C
:0406DB001801101ED4
:0406DC0028C00E48DC
:0406DD001800DA1E09
:0406DE008C402034F8
:0406DF0028C008081F
:0406E0001801241EBB
:0406E10000C0080449
:0406E2001947C83AB2
:0406E30088E4983AD5
:0406E4006148D83A57
:0406E50060C6983A19
:0406E600894AD83A2B
:0406E7009124B03A70
:0406E8001806C03AF6
:0406E90090E4B03AAF
:0406EA005957883A9A
:0406EB009365883A51
:0406EC00935B803A62
:0406ED006AE3883AFA
:0406EE001021883A15
:0406EF00003FC806FA
:0406F0009009883AAB
:0406F10000021D8066
:0406F20011000604E9
:0406F30020C0080813
:0406F400183F2E2657
:0406F50010BFFE0430
:0406F6009084983A1A
:0406F7002400721653
:0406F8002425C83AB3
:0406F9009100004428
:0406FA0020C008080C
:0406FB001801242698
:0406FC0094BFF8446B
:0406FD0020C00820F1
:0406FE0014A4D83A2E
:0406FF001800051EBC
:0407000000C0100421
:040701001907C83AD2
:0407020010C4983A4D
:040703001004C03AE4
:0407040090A4B03AD3
:04070500908001CC13
:040706000021883A0C
:04070700103F2F1E52
:0407080000003706B0
:040709009004D0FA8E
:04070A00880A977A48
:04070B008101FFE089
:04070C008806D0FA91
:04070D002884B03A52
:04070E0020000C1E9D
:04070F0001000434AD
:04071000213FFFC4C2
:040711001908703A19
:0407120080C1FFCCD7
:04071300003F390664
:040714001000B31E00
:04071500880A977A3D
:040716000088003423
:0407170010BFFFC44C
:040718008806D0FA85
:040719002084703A8E
:04071A001144B03A9C
:04071B0010C8B03A18
:04071C00200107268B
:04071D00014004345F
:04071E001900023488
:04071F00297FFFC46B
:040720002148703AC2
:0407210000C1FFC450
:04072200003F2A0664
:040723006819883A8F
:040724005823883A94
:040725003827883AAF
:040726006004D0FAA1
:040727002821883AC3
:04072800003FE106A7
:04072900047FE03435
:04072A008C7FFFC4FD
:04072B008121C83A26
:04072C001462703AA9
:04072D00003F07067C
:04072E0080C0004443
:04072F001881FF8CA2
:040730001000421E55
:040731008B04B03A4B
:040732008000921E93
:040733001000C226CA
:040734005B44B03A38
:040735001000732617
:040736006365883A35
:040737009305803A6C
:040738008AD7883A9A
:0407390058A3883AFF
:04073A008880202C67
:04073B001000042680
:04073C0000BFE034E6
:04073D0010BFFFC426
:04073E0088A2703AE3
:04073F00040000446E
:04074000800B883A68
:040741009019883A49
:04074200003FE3068B
:0407430010C1FFE002
:0407440018006B1E10
:0407450028C00E4872
:0407460018002A1E4F
:040747008C4020348E
:04074800003F1D064B
:040749006365C83AE2
:04074A006485803A08
:04074B008AC7C83A57
:04074C001887C83A08
:04074D001880202CC4
:04074E001000321E47
:04074F0090C4B03A68
:040750001000492626
:040751001823883AA7
:04075200003ECC0693
:0407530028BFF804BF
:0407540028C0082091
:040755005884D83AB2
:040756001800041E65
:0407570000C01004CA
:040758001947C83A3B
:0407590058C6983AAC
:04075A0068DAB03A6F
:04075B006824C03A14
:04075C0090A4B03A7B
:04075D00003EB9069B
:04075E005AC0203429
:04075F00003F24062D
:040760008B06B03A1A
:0407610018009126C5
:0407620028FFFFC4A9
:040763001800AC26A8
:040764002941FFE048
:040765002800861EC4
:0407660019000E4820
:040767002000501E00
:04076800180B883AA8
:04076900003F7506D2
:04076A0000FFE03478
:04076B0018FFFFC4B0
:04076C0010C6703A09
:04076D001804977A5B
:04076E008121C83AE3
:04076F001806D0FA9E
:04077000003F9E06A2
:0407710004800044BC
:04077200003EFF0640
:040773001881FFE00A
:04077400103F521EC2
:040775006349883A12
:040776008AD7883A5C
:040777002305803A9C
:040778005885883ADE
:040779002008D07A0A
:04077A00102497FAB6
:04077B001022D07AFE
:04077C00208001CC0C
:04077D009124B03AD9
:04077E001821883A7C
:04077F00103EB71E53
:04078000003FBF0671
:040781006B25C83AE2
:040782005C57C83ABE
:040783006C9B803AB1
:040784005B63C83AB1
:040785003827883A4F
:040786005029883A34
:04078700003E970693
:04078800283F8B1E5D
:040789001000261E18
:04078A0000BFFFC4E9
:04078B000027883A81
:04078C00003F900694
:04078D006365C83A9E
:04078E008AD7C83A04
:04078F006485803AC3
:0407900058A3C83A68
:04079100040000441C
:04079200003E870698
:040793008804977AC5
:0407940000C8003465
:0407950018FFFFC486
:0407960020C8703ACD
:040797002084B03AD0
:040798008806D0FA05
:04079900003F810696
:04079A000027883A72
:04079B000007883A91
:04079C000009883A8E
:04079D00003EAF0665
:04079E0028BFF80474
:04079F0028C0082046
:0407A0005884D83A67
:0407A1001800041E1A
:0407A20000C010047F
:0407A3001947C83AF0
:0407A40058C6983A61
:0407A50068DAB03A24
:0407A6006824C03AC9
:0407A70090A4B03A30
:0407A800003F0C06FC
:0407A900880A977AA9
:0407AA00008800348F
:0407AB0010BFFFC4B8
:0407AC002084703AFB
:0407AD008806D0FAF0
:0407AE001144B03A08
:0407AF00003F5F06A2
:0407B0005804977AD8
:0407B10000C8003448
:0407B20018FFFFC469
:0407B30030C8703AA0
:0407B4001104B03A42
:0407B5005806D0FA18
:0407B6003827883A1E
:0407B700003F630696
:0407B8000480004475
:0407B900003F3106C6
:0407BA0028FFF80418
:0407BB0029000820E9
:0407BC0088C6D83AD9
:0407BD002000041EF6
:0407BE000100100422
:0407BF002149C83ACA
:0407C0008908983AD2
:0407C1006118B03AD1
:0407C2006024C03AB5
:0407C30090E4B03AD4
:0407C400003EAD0640
:0407C50010004F26AB
:0407C6005B5AB03A90
:0407C700683F4D2614
:0407C8008806D0FAD5
:0407C90001480034AF
:0407CA008822977A70
:0407CB00297FFFC4BF
:0407CC002144703A1A
:0407CD001900022CE1
:0407CE001444B03AE5
:0407CF00203F4B2656
:0407D0005808D0FAFB
:0407D1002200022CD4
:0407D200403F481E3E
:0407D3005804977AB5
:0407D400314A703AFC
:0407D5003827883AFF
:0407D6002884B03A89
:0407D7002007883A35
:0407D800003F420696
:0407D9000400008494
:0407DA00003EE206F5
:0407DB006B25C83A88
:0407DC005C57C83A64
:0407DD006C9B803A57
:0407DE005B63C83A57
:0407DF003827883AF5
:0407E0005029883ADA
:0407E10004000044CC
:0407E200003E370698
:0407E300103FB626E7
:0407E4005808977AA0
:0407E5000088003454
:0407E60010BFFFC47D
:0407E7003084703AB0
:0407E8005806D0FAE5
:0407E9001104B03A0D
:0407EA003827883AEA
:0407EB00003F2306A2
:0407EC005808977A98
:0407ED00008800344C
:0407EE0010BFFFC475
:0407EF003084703AA8
:0407F0005806D0FADD
:0407F1001104B03A05
:0407F200003F280696
:0407F3006819883ABF
:0407F4005823883AC4
:0407F500003F30068B
:0407F6005808977A8E
:0407F7000088003442
:0407F80010BFFFC46B
:0407F9003084703A9E
:0407FA005806D0FAD3
:0407FB001104B03AFB
:0407FC00003F1206A2
:0407FD005808977A87
:0407FE00008800343B
:0407FF0010BFFFC464
:040800003084703A96
:040801005806D0FACB
:040802001104B03AF3
:040803003827883AD0
:04080400003F160695
:0408050028FFF804CC
:04080600290008209D
:0408070088C6D83A8D
:040808002000041EAA
:0408090001001004D6
:04080A002149C83A7E
:04080B008908983A86
:04080C006118B03A85
:04080D006024C03A69
:04080E0090E4B03A88
:04080F00003EDB06C6
:040810006365883A5A
:040811008AD7883AC0
:04081200935B803A3A
:040813005B63883A61
:04081400003EBC06E0
:040815005804977A72
:0408160000C80034E2
:0408170018FFFFC403
:0408180030CC703A36
:040819001184B03A5C
:04081A005806D0FAB2
:04081B00003EFF0696
:04081C0090C4B03A9A
:04081D00103F7C26E6
:04081E001823883AD9
:04081F00003F200670
:0408200000C0080408
:040821001907C83AB1
:04082200000B883A05
:04082300003E0C0681
:040824000005883A09
:0408250000C1FFC44B
:040826000009883A03
:04082700003E250664
:040828002804D53A91
:0408290000C00434D3
:04082A0018FFFFC4F0
:04082B001081FFCC6D
:04082C001180FFD068
:04082D00280ED7FAC0
:04082E0028CA703A2A
:04082F003000061E71
:0408300010C107905C
:040831001800061E87
:0408320000A00034EE
:0408330010BFFFC42F
:040834003885883A41
:04083500F800283A65
:040836000005883AF7
:04083700F800283A63
:0408380000C10CC42B
:040839001887C83A1A
:04083A001980080811
:04083B002940043418
:04083C003000071E63
:04083D0010BEFB44AA
:04083E002884983A38
:04083F0020C8D83ABB
:040840001104B03AB5
:04084100383FF52621
:040842000085C83A2B
:04084300F800283A57
:0408440000C104C427
:040845001885C83A10
:040846002884D83AF0
:04084700003FF9066F
:04084800DEFFFD04CE
:04084900DFC00215F5
:04084A00DC40011578
:04084B00DC000015B8
:04084C00200013264F
:04084D002022D7FA94
:04084E002021883AA3
:04084F00200024164B
:040850008009883A59
:0408510000021D8004
:040852000101078415
:040853002089C83AF6
:0408540010C002C806
:040855002101FFCCB2
:040856001800161E52
:04085700014002C496
:04085800288BC83AE7
:04085900814AD83ABE
:04085A0000C00434A2
:04085B0010800544C0
:04085C0018FFFFC4BE
:04085D008084983AC1
:04085E0028CA703AFA
:04085F00000004068B
:040860000023883AAF
:040861000009883AC8
:04086200000B883AC5
:040863000005883ACA
:040864002008953A99
:04086500880697FA70
:040866002148B03A3B
:0408670020C6B03ABD
:04086800DFC00217D4
:04086900DC40011757
:04086A00DC00001797
:04086B00DEC00304E4
:04086C00F800283A2E
:04086D0010BFFD4477
:04086E00808A983AAA
:04086F0000800434CD
:0408700010BFFFC4F2
:04087100288A703A27
:040872000005883ABB
:04087300003FF0064C
:040874000121C83A5C
:04087500003FDA0660
:0408760000BFFFD4EC
:0408770011000A362C
:0408780020C0402834
:04087900180690FAD3
:04087A0000800804EE
:04087B0010C5C83AA2
:04087C0020C8D83A7E
:04087D0000C0003483
:04087E0020C7883ACD
:04087F0018D0350355
:0408800010C5C83A9D
:04088100F800283A19
:04088200008040347E
:040883002080032EA0
:0408840000800404E8
:0408850000C00404A7
:04088600003FF50634
:0408870000800204E7
:0408880000C00604A2
:04088900003FF20634
:04088A0030C004284E
:04088B002005883A82
:04088C0018000B1E27
:04088D002007883A7E
:04088E0031FFFFC473
:04088F0030003426DB
:0408900039C0004427
:0408910019CF883AB9
:0408920029800003B6
:0408930018C0004445
:0408940029400044B3
:0408950019BFFFC5C3
:0408960019FFFB1E2D
:04089700F800283A03
:040898002146B03A0B
:0408990018C000CCB7
:04089A0018002A1EFA
:04089B00333FFC04E7
:04089C006018D13AD5
:04089D002811883A5C
:04089E00200F883A65
:04089F0063000044AE
:0408A0006018913A11
:0408A1002307883A67
:0408A20042C0001739
:0408A3004280011777
:0408A40042400217B5
:0408A50041000317F4
:0408A60039C004044D
:0408A7003AFFFC1503
:0408A8003ABFFD1541
:0408A9003A7FFE157F
:0408AA00393FFF15BE
:0408AB0042000404FF
:0408AC0038FFF51EFE
:0408AD003100030C07
:0408AE002B0B883A4E
:0408AF00324003CC04
:0408B00020001726E7
:0408B1002811883A48
:0408B2001809883A5F
:0408B3001A57883A0E
:0408B4004280001767
:0408B5002100010419
:0408B600590FC83AD4
:0408B70039C001281B
:0408B80022BFFF1547
:0408B90042000104F4
:0408BA00383FF91EAC
:0408BB00493FFF04AE
:0408BC002008D0BA86
:0408BD00318000CCBA
:0408BE0031FFFFC443
:0408BF0021000044D0
:0408C000200890BAC2
:0408C1001907883A51
:0408C200290B883A3C
:0408C300303FCC1ED8
:0408C400F800283AD6
:0408C50031FFFFC43C
:0408C6002007883A45
:0408C700003FC80620
:0408C800480D883A15
:0408C900003FC40622
:0408CA00DEFFFB044E
:0408CB00DC800215B6
:0408CC00DC400115F6
:0408CD00DFC004156F
:0408CE00DCC0031572
:0408CF00DC00001534
:0408D000208000CCB8
:0408D1002023883A1E
:0408D2002825883A13
:0408D30010004026AB
:0408D40034FFFFC42A
:0408D5003000332696
:0408D600280F883A25
:0408D7002021883A1A
:0408D8000000030613
:0408D9009CFFFFC4BD
:0408DA0099BFFFE0E3
:0408DB0030002D1E9E
:0408DC008400004450
:0408DD00818000CC4A
:0408DE0081FFFFC5D2
:0408DF00303FF91E8F
:0408E00098800128D3
:0408E10010002126BC
:0408E200014040741D
:0408E3002940404424
:0408E40091003FCC74
:0408E500000362802A
:0408E60098C0043082
:0408E70018002F1EA8
:0408E80099BFFC04B4
:0408E900300CD13AC4
:0408EA003180004415
:0408EB00300C913A02
:0408EC00818D883A38
:0408ED0080800015F2
:0408EE0080800115F0
:0408EF0080800215EE
:0408F00080800315EC
:0408F1008400040477
:0408F20081BFFA1EAA
:0408F3009900030C59
:0408F40098C003CCD9
:0408F50020001B269E
:0408F6003009883A03
:0408F70030CB883A40
:0408F80021000104D6
:0408F900290FC83AC1
:0408FA0039C00128D8
:0408FB0020BFFF1506
:0408FC00383FFB1E68
:0408FD001C3FFF0499
:0408FE008020D0BACC
:0408FF001CC000CC4D
:04090000840000442B
:04090100802090BA08
:040902003421883ADA
:04090300980005262D
:04090400900B883A92
:0409050084C7883AE1
:040906008400004425
:04090700817FFFC528
:040908001C3FFD1E75
:040909008805883A9B
:04090A00DFC004172F
:04090B00DCC0031732
:04090C00DC80021772
:04090D00DC400117B2
:04090E00DC000017F2
:04090F00DEC005043D
:04091000F800283A89
:040911001827883AE1
:04091200983FF11EFB
:04091300003FF506A6
:040914002021883ADC
:040915003027883AC5
:04091600003FC906CF
:04091700800D883A8D
:040918009807883A7A
:04091900003FDC06B9
:04091A000080003425
:04091B0010957917A3
:04091C001000031EA6
:04091D0000FFC2B461
:04091E000080003421
:04091F0010D5791561
:04092000F800283A79
:04092100DEFFF304FE
:04092200014000345C
:0409230001800B4400
:0409240029507504DD
:04092500D90000C431
:04092600DFC00C150D
:040927000002228028
:0409280001800B043B
:04092900D94000C4ED
:04092A000100008444
:04092B000003800045
:04092C000100018441
:04092D000002724012
:04092E0001001FC4E1
:04092F00000000C004
:04093000DEFFFF04E3
:04093100DFC000150E
:040932000002484037
:040933002080B71752
:040934001000022687
:040935000005883AF7
:04093600F800283A63
:04093700DEFFFE04DD
:040938000140200456
:04093900DC000015C9
:04093A00DFC0011504
:04093B002021883AB5
:04093C0000029F0016
:04093D008080B715EA
:04093E001009883ADA
:04093F001000082676
:04094000018020040E
:04094100000B883AE5
:0409420000023280FD
:040943000005883AE9
:04094400DFC00117F8
:04094500DC000017BB
:04094600DEC0020409
:04094700F800283A52
:0409480000BFFFC429
:04094900003FFA066B
:04094A00DEFFFC04CC
:04094B00DC40011576
:04094C00DFC00315F0
:04094D00DC80021533
:04094E00DC000015B4
:04094F0028800830C4
:040950002023883A9E
:0409510010000E265E
:0409520020C0B717F3
:040953002821883A95
:040954003025883A88
:0409550018000E2652
:04095600802090BAB3
:040957001C07883AB7
:0409580018800017EC
:040959001C800015E9
:04095A00DFC00317E0
:04095B00DC80021723
:04095C00DC40011763
:04095D00DC000017A3
:04095E00DEC00404EF
:04095F00F800283A3A
:04096000008005848A
:0409610020800015DD
:0409620000BFFFC40F
:04096300003FF60655
:04096400014020042A
:0409650000029F00ED
:040966008880B715B9
:04096700103FFA261D
:0409680001802004E6
:04096900000B883ABD
:04096A001009883AAE
:04096B0000023280D4
:04096C001007883AAE
:04096D00003FE80659
:04096E0028800830A5
:04096F001000262628
:040970002080B71715
:04097100DEFFFD04A4
:04097200DC0001158F
:04097300DFC00215CA
:040974002821883A74
:040975001000102638
:04097600280690BA05
:0409770010C5883AE5
:0409780010C0001794
:0409790018000C2630
:04097A0019400060C0
:04097B002800051E2D
:04097C00197FFFD808
:04097D002800112617
:04097E001000001550
:04097F008009883A29
:04098000183EE83AFB
:040981000005883AAB
:04098200DFC00217B9
:04098300DC0001177C
:04098400DEC00304CA
:04098500F800283A14
:04098600D90000157F
:0409870000029EC00C
:04098800D90000177B
:04098900800D883A1B
:04098A00100B883A8C
:04098B00DFC00217B0
:04098C00DC00011773
:04098D00DEC00304C1
:04098E00000298C10A
:04098F00008005845B
:0409900020800015AE
:04099100008000449E
:04099200DFC00217A9
:04099300DC0001176C
:04099400DEC00304BA
:04099500F800283A04
:040996000080058454
:0409970020800015A7
:0409980000BFFFC4D9
:04099900F800283A00
:04099A002880083079
:04099B0010002B26F7
:04099C0020C0B717A9
:04099D00DEFFFD0478
:04099E00DC40011523
:04099F00DC00001563
:0409A000DFC002159D
:0409A1002821883A47
:0409A2002023883A4C
:0409A30018001726FB
:0409A400800490BA81
:0409A5001887883AED
:0409A600188000179E
:0409A70010000D2609
:0409A800113FFFE01C
:0409A90020000F1EFD
:0409AA0011000060D8
:0409AB0020000B1EFF
:0409AC00180000151A
:0409AD008009883AFB
:0409AE00103EE83AD5
:0409AF000005883A7D
:0409B000DFC002178B
:0409B100DC4001170E
:0409B200DC0000174E
:0409B300DEC003049B
:0409B400F800283AE5
:0409B500008000447A
:0409B600003FF906FF
:0409B700008000C4F8
:0409B800003FF706FF
:0409B9000080008436
:0409BA00003FF506FF
:0409BB0001402004D3
:0409BC0000029F0096
:0409BD008880B71562
:0409BE0010000626F9
:0409BF00018020048F
:0409C000000B883A66
:0409C1001009883A57
:0409C200000232807D
:0409C3001007883A57
:0409C400003FDF060B
:0409C50000BFFFC4AC
:0409C600003FE906FF
:0409C70000BFFFC4AA
:0409C800F800283AD1
:0409C900DEFFFD044C
:0409CA00DC400115F7
:0409CB0000C0003434
:0409CC00DFC0021571
:0409CD00DC00001535
:0409CE00208008304D
:0409CF001C52F317AC
:0409D00010002126CC
:0409D1008880B7174C
:0409D2002021883A1E
:0409D30010001026DA
:0409D400200690BAAF
:0409D50010C5883A87
:0409D60010C0001736
:0409D70018000C26D2
:0409D8001940006062
:0409D9002800041ED0
:0409DA00197FFFD8AA
:0409DB0028001226B8
:0409DC0010000015F2
:0409DD00183EE83A9E
:0409DE000005883A4E
:0409DF00DFC002175C
:0409E000DC400117DF
:0409E100DC0000171F
:0409E200DEC003046C
:0409E300F800283AB6
:0409E4008809883ABC
:0409E50000029EC0AE
:0409E600800D883ABE
:0409E700100B883A2F
:0409E8008809883AB8
:0409E900DFC0021752
:0409EA00DC400117D5
:0409EB00DC00001715
:0409EC00DEC0030462
:0409ED00000298C1AB
:0409EE0000800584FC
:0409EF0088800015E7
:0409F000008000443F
:0409F100003FED06D0
:0409F20000800584F8
:0409F30088800015E3
:0409F40000BFFFC47D
:0409F500003FE906D0
:0409F600DEFFFC0420
:0409F700DC80021589
:0409F80000C0003407
:0409F900DFC0031543
:0409FA00DC400115C7
:0409FB00DC00001507
:0409FC00208008301F
:0409FD001C92F3173E
:0409FE0010000E26B1
:0409FF002021883AF1
:040A00009100B71793
:040A01002823883AE4
:040A020020000E269C
:040A0300802090BA05
:040A04002409883AFF
:040A05002080001736
:040A06002440001573
:040A0700DFC0031732
:040A0800DC80021775
:040A0900DC400117B5
:040A0A00DC000017F5
:040A0B00DEC0040441
:040A0C00F800283A8C
:040A0D0000800584DC
:040A0E0090800015BF
:040A0F0000BFFFC461
:040A1000003FF606A7
:040A11009009883A86
:040A1200014020047B
:040A130000029F003E
:040A14009080B71502
:040A15001009883A02
:040A1600103FF8266F
:040A17000180200436
:040A1800000B883A0D
:040A19000002328025
:040A1A001009883AFD
:040A1B00003FE706AB
:040A1C00DEFFFE04F7
:040A1D000080003421
:040A1E00DC000015E3
:040A1F001412F317A3
:040A2000DFC001151D
:040A21008080B71703
:040A22001000052695
:040A23000005883A08
:040A2400DFC0011717
:040A2500DC000017DA
:040A2600DEC0020428
:040A2700F800283A71
:040A28008009883A7F
:040A29000140200464
:040A2A0000029F0027
:040A2B008080B715FB
:040A2C001009883AEB
:040A2D00100004268B
:040A2E00018020041F
:040A2F00000B883AF6
:040A3000000232800E
:040A3100003FF1068B
:040A320000BFFFC43E
:040A3300003FF0068A
:040A3400DEFFFD04E0
:040A3500DC4001158B
:040A360000C00034C8
:040A3700DFC0021505
:040A3800DC000015C9
:040A390020800830E1
:040A3A001C52F31740
:040A3B00100025265C
:040A3C0088C0B717A0
:040A3D002021883AB2
:040A3E00180017265F
:040A3F00800490BAE5
:040A40001887883A51
:040A41001880001702
:040A420010000D266D
:040A4300113FFFE080
:040A440020000F1E61
:040A4500110000603C
:040A460020000B1E63
:040A4700180000157E
:040A48008009883A5F
:040A4900103EE83A39
:040A4A000005883AE1
:040A4B00DFC00217EF
:040A4C00DC40011772
:040A4D00DC000017B2
:040A4E00DEC00304FF
:040A4F00F800283A49
:040A500000800044DE
:040A5100003FF90663
:040A5200008000C45C
:040A5300003FF70663
:040A5400008000849A
:040A5500003FF50663
:040A56000140200437
:040A57008809883A48
:040A580000029F00F9
:040A59008880B715C5
:040A5A00100006265C
:040A5B0001802004F2
:040A5C00000B883AC9
:040A5D001009883ABA
:040A5E0000023280E0
:040A5F001007883ABA
:040A6000003FDE066F
:040A610000BFFFC40F
:040A6200003FE80663
:040A63002807883A9E
:040A6400DEFFFE04AF
:040A6500DC0000159C
:040A660000800034D8
:040A6700300B883A8E
:040A68002021883A87
:040A69001809883AA6
:040A6A00DFC00115D3
:040A6B0010157A15D3
:040A6C00000365809E
:040A6D0010FFFFD89F
:040A6E001800042642
:040A6F00DFC00117CC
:040A7000DC0000178F
:040A7100DEC00204DD
:040A7200F800283A26
:040A730000C000348B
:040A740018D57A1700
:040A7500183FF92607
:040A760080C0001527
:040A7700DFC00117C4
:040A7800DC00001787
:040A7900DEC00204D5
:040A7A00F800283A1E
:040A7B00000365010E
:040A7C00DEFFF6049F
:040A7D00DC40011543
:040A7E002C4002C442
:040A7F00DC80021500
:040A8000DFC00915B5
:040A8100DF00081575
:040A8200DDC00715B7
:040A8300DD800615F7
:040A8400DD40051537
:040A8500DD00041577
:040A8600DCC00315B8
:040A8700DC0000157A
:040A8800888005E875
:040A89002025883A62
:040A8A001000261E14
:040A8B002940046892
:040A8C0028008D1E93
:040A8D0000037940A9
:040A8E000440040418
:040A8F0000800604D9
:040A900001C000841D
:040A910004C0003469
:040A92009CD1B90436
:040A93009885883A80
:040A94001400011732
:040A950010FFFE044C
:040A960080C0CB262B
:040A97008080011743
:040A980081000317BF
:040A990000FFFF0457
:040A9A0010C4703ADA
:040A9B00814002177D
:040A9C008085883A8F
:040A9D0010C001176D
:040A9E002900031513
:040A9F0021400215DB
:040AA00018C0005426
:040AA10010C001156B
:040AA2009009883AF5
:040AA3000003798053
:040AA4008080020448
:040AA500DFC009178E
:040AA600DF0008174E
:040AA700DDC0071790
:040AA800DD800617D0
:040AA900DD40051710
:040AAA00DD00041750
:040AAB00DCC0031791
:040AAC00DC800217D1
:040AAD00DC40011711
:040AAE00DC00001751
:040AAF00DEC00A0497
:040AB000F800283AE8
:040AB10000BFFE0480
:040AB20088A2703A6C
:040AB300880066163B
:040AB40089406536DA
:040AB5000003794081
:040AB60088807E288E
:040AB7001000EF2616
:040AB8008804D27A62
:040AB900100064269F
:040ABA0010C00168FF
:040ABB001800C31E3E
:040ABC008804D1BA1F
:040ABD0011C00E4412
:040ABE00380890FA6A
:040ABF0012000E040F
:040AC00004C000343A
:040AC1009CD1B90407
:040AC2009909883ACC
:040AC30024000117F3
:040AC400213FFE04CC
:040AC50024000B26D8
:040AC60001BFFF0469
:040AC7000000030622
:040AC8001800970E6D
:040AC900840003178B
:040ACA0024000626D8
:040ACB00808001170F
:040ACC001184703AE7
:040ACD001447C83AC8
:040ACE0019400408BF
:040ACF00283FF8269E
:040AD000400F883A11
:040AD1009C0004176A
:040AD20002400034AA
:040AD3004A51BB04C5
:040AD40082407F26B7
:040AD5008080011705
:040AD60000FFFF041A
:040AD70010C4703A9D
:040AD8001447C83ABD
:040AD90019000410EC
:040ADA002000CF2603
:040ADB009A40051523
:040ADC009A40041523
:040ADD001800C10E2E
:040ADE0010C080289C
:040ADF009940011722
:040AE0001800851E57
:040AE1001006D0FA31
:040AE2001008D17AAD
:040AE3001880004433
:040AE400100490FA70
:040AE50000C0004409
:040AE6001906983A1B
:040AE7009885883A2C
:040AE80011000017E2
:040AE90028CAB03A2D
:040AEA0010FFFE04F7
:040AEB0080C00315AF
:040AEC00810002156E
:040AED009940011516
:040AEE0014000015DB
:040AEF0024000315C7
:040AF0003805D0BA3B
:040AF10001000044BC
:040AF2002088983A86
:040AF30029002E3672
:040AF4002144703AEF
:040AF50010000A1EC5
:040AF6002109883A10
:040AF70000BFFF0439
:040AF8003884703A94
:040AF9002146703AE8
:040AFA0011C0010422
:040AFB001800041EBD
:040AFC002109883A0A
:040AFD002144703AE6
:040AFE0039C00104F6
:040AFF00103FFC2682
:040B000002BFFF042D
:040B0100381690FA18
:040B02003819883ADC
:040B03009AD7883ABB
:040B04005811883AC2
:040B05004080031712
:040B06004080812684
:040B070010C0011702
:040B08001021883AF6
:040B0900108003173E
:040B0A001A86703A9D
:040B0B001C4BC83A7D
:040B0C002980041028
:040B0D0030007F260F
:040B0E00283FF7166F
:040B0F0080C7883AD9
:040B10001940011770
:040B110081800217C6
:040B12009009883A84
:040B13002940005421
:040B1400194001156E
:040B15003080031514
:040B16001180021533
:040B170000037980DE
:040B180080800204D3
:040B1900003F8B0608
:040B1A000080030450
:040B1B0090800015B1
:040B1C000005883A0E
:040B1D00003F870608
:040B1E00010080044E
:040B1F0001C01004FD
:040B200002000FC4FC
:040B2100003F9E06ED
:040B22009C0002171A
:040B230000BFFF040C
:040B240080C0011775
:040B250018AA703A60
:040B2600AC400336A6
:040B2700AC47C83AD5
:040B28001880040825
:040B290010002C1E6E
:040B2A000080003413
:040B2B001092F41719
:040B2C0000C00034D1
:040B2D001D157D17FE
:040B2E0010BFFFD81D
:040B2F00856F883A0C
:040B30008D29883A49
:040B31001000E726A3
:040B3200A50403C44F
:040B330000BC0004FE
:040B3400A0A8703ACB
:040B3500A00B883A4F
:040B36009009883A60
:040B370000031A405D
:040B3800102D883ABA
:040B390010BFFFD812
:040B3A0010008426FD
:040B3B00B5C0823689
:040B3C000080003401
:040B3D0011158317F4
:040B3E00A109883A47
:040B3F0011158315F4
:040B40002007883AC8
:040B4100BD80A51EB0
:040B4200B083FFCCB1
:040B43001000A31EDD
:040B44009D80021777
:040B4500AD07883A36
:040B460018C000547F
:040B4700B0C0011524
:040B480000800034F5
:040B490010957C1770
:040B4A001100022E66
:040B4B0000800034F2
:040B4C0011157C15EE
:040B4D0000800034F0
:040B4E0010957B176C
:040B4F001100022E61
:040B500000800034ED
:040B510011157B15EA
:040B5200B021883A0C
:040B530000006D062B
:040B540099400117AC
:040B5500003F9A06BD
:040B5600888000543F
:040B57008080011584
:040B58008463883AF0
:040B59009C400215A5
:040B5A0018C000546B
:040B5B0088C0011538
:040B5C009009883A3A
:040B5D000003798098
:040B5E00808002048D
:040B5F00003F450608
:040B600081000317F6
:040B6100003F390612
:040B62001400031761
:040B6300143F331EEA
:040B640039C0008410
:040B6500003F6B06DC
:040B66001006D27A29
:040B67001900016808
:040B680020005026F3
:040B69001900056802
:040B6A002000C01E89
:040B6B0019801704D2
:040B6C00300C90FABF
:040B6D00190016C491
:040B6E00998D883A9B
:040B6F0030C000177B
:040B700031BFFE048F
:040B710030C0A926C1
:040B7200023FFF043B
:040B73000000020676
:040B740018C002178C
:040B750030C0032663
:040B7600190001174A
:040B77002208703AA6
:040B7800113FFB36F8
:040B790019800317C5
:040B7A00818003155E
:040B7B0080C002151F
:040B7C00340002152A
:040B7D001C00031540
:040B7E00003F7106BD
:040B7F0010C0056835
:040B800018004926EA
:040B810010C0156823
:040B82001800AF1E8A
:040B83008804D33AD5
:040B840011C01BC4BD
:040B8500380890FAA2
:040B860012001B84BA
:040B8700003F3806ED
:040B880063000044C2
:040B8900608000CCBC
:040B8A00420002041F
:040B8B00103F791E80
:040B8C00000044061B
:040B8D0081000217CA
:040B8E008980005406
:040B8F00818001154B
:040B900020800315A9
:040B91001100021538
:040B92008463883AB6
:040B93009C40051568
:040B94009C40041568
:040B95002880005460
:040B9600888001153D
:040B97008A40031578
:040B98008A40021578
:040B990080C7883A4F
:040B9A0019400015E9
:040B9B009009883AFB
:040B9C000003798059
:040B9D00808002044E
:040B9E00003F060608
:040B9F008085883A8B
:040BA00010C0011769
:040BA1009009883AF5
:040BA20018C0005423
:040BA30010C0011568
:040BA4000003798051
:040BA5008080020446
:040BA600003EFE0609
:040BA700880ED0FAEA
:040BA800888002043B
:040BA900003EE7061D
:040BAA00890000546A
:040BAB0081000115AF
:040BAC008463883A9C
:040BAD009C4005154E
:040BAE009C4004154E
:040BAF0019000054D5
:040BB00089000115A2
:040BB1008085883A79
:040BB2008A4003155D
:040BB3008A4002155D
:040BB40010C0001558
:040BB5009009883AE1
:040BB600000379803F
:040BB7008080020434
:040BB800003EEC0609
:040BB9001006D1BA97
:040BBA0019800E444C
:040BBB00300C90FA70
:040BBC0019000E040A
:040BBD00003FB0063F
:040BBE0084C02426A5
:040BBF009C0002177D
:040BC00080C00117D9
:040BC10000BFFF046E
:040BC2001884703AE9
:040BC3001447C83AD1
:040BC40014400236A1
:040BC5001880040888
:040BC600103F8F1E2F
:040BC7009009883ACF
:040BC800000379802D
:040BC900003F520691
:040BCA0011C017043B
:040BCB00380890FA5C
:040BCC00120016C439
:040BCD00003EF206EE
:040BCE005880021732
:040BCF0039FFFFC427
:040BD00012C0961E9B
:040BD100388000CC9C
:040BD2005AFFFE04C4
:040BD300103FFA1EB7
:040BD40098C00117AD
:040BD5000104303AAD
:040BD60010C4703A9D
:040BD70098800115EC
:040BD8002109883A2D
:040BD900113F48364A
:040BDA00203F47264B
:040BDB002086703AC6
:040BDC001800041EDB
:040BDD002109883A28
:040BDE002086703AC3
:040BDF0063000104AA
:040BE000183FFC2698
:040BE100600F883ADF
:040BE200003F1E06AC
:040BE300008000345A
:040BE40010D583178E
:040BE500A0C7883AE3
:040BE60010D583158E
:040BE7000080003456
:040BE8001092F4175C
:040BE90010BFFFD862
:040BEA0010004E2683
:040BEB00B5C5C83A8A
:040BEC0010C5883A6E
:040BED0000C0003410
:040BEE0018958315BE
:040BEF00B70001CC7E
:040BF000E0003026CB
:040BF100B72DC83A1A
:040BF200B5800204C4
:040BF30001040204F3
:040BF4002709C83ACB
:040BF500B529883A5C
:040BF6002509C83ACB
:040BF70025C3FFCC47
:040BF800B80B883A74
:040BF9009009883A9D
:040BFA0000031A409A
:040BFB0010FFFFE008
:040BFC001800501E6F
:040BFD001585C83A58
:040BFE0015E9883A33
:040BFF00008000343E
:040C000010958317B1
:040C01009D800215BB
:040C0200A0C000543A
:040C0300B889883AEA
:040C04000080003438
:040C0500111583152D
:040C0600B0C0011564
:040C070084FF402600
:040C0800A880042894
:040C0900100032267F
:040C0A0080800117CE
:040C0B00017FFE0463
:040C0C00A8FFFD043C
:040C0D001946703ADA
:040C0E001080004C06
:040C0F0010C4B03A23
:040C100080800115CA
:040C11000140014459
:040C120080C5883AD7
:040C13001140011576
:040C14001140021574
:040C150018C00428D7
:040C160018003B1E69
:040C1700B0C0011751
:040C1800003F2F0664
:040C1900A50004042A
:040C1A00003F1A0677
:040C1B002009D0BA22
:040C1C000080004410
:040C1D001104983AEC
:040C1E00288AB03A36
:040C1F0099400115E2
:040C2000003F590632
:040C2100B509883A4F
:040C22000109C83AC2
:040C230025C3FFCC1A
:040C2400B80B883A47
:040C25009009883A70
:040C260000031A406D
:040C270010FFFFE0DB
:040C2800183FD42677
:040C2900002F883AD6
:040C2A00003FD406AD
:040C2B00190015682F
:040C2C002000121E74
:040C2D001006D33AA0
:040C2E0019801BC44A
:040C2F00300C90FAFB
:040C300019001B8408
:040C3100003F3C063E
:040C320010C0556831
:040C33001800121E75
:040C34008804D3FA63
:040C350011C01E04C8
:040C3600380890FAF0
:040C370012001DC4C6
:040C3800003E8706ED
:040C39000080003403
:040C3A001592F41506
:040C3B00003FB306BD
:040C3C0000800044F0
:040C3D00B08001156D
:040C3E00003F8806E5
:040C3F0019005568DB
:040C40002000181E5A
:040C41001006D3FACC
:040C420019801E04F3
:040C4300300C90FAE7
:040C440019001DC4B2
:040C4500003F28063E
:040C4600108155685C
:040C47001000181E63
:040C48008804D4BA8E
:040C490011C01F4473
:040C4A00380890FADC
:040C4B0012001F0470
:040C4C00003E7306ED
:040C4D00E73FFE047B
:040C4E00A729883A10
:040C4F00A5A9C83A51
:040C5000002F883AAF
:040C5100003FAD06AD
:040C52009009883A43
:040C530081400204D6
:040C54000003320067
:040C550000800034E7
:040C56009D80021764
:040C570011158317D9
:040C5800003FBE0695
:040C590018C1556801
:040C5A001800091E57
:040C5B001006D4BAF1
:040C5C0019801F4498
:040C5D00300C90FACD
:040C5E0019001F0456
:040C5F00003F0E063E
:040C60000100FE048D
:040C610001C01FC4EB
:040C620002001F84E9
:040C6300003E5C06ED
:040C64000180FE0409
:040C650001001F84E7
:040C6600003F07063E
:040C67009880011759
:040C6800003F6F06D4
:040C6900DEFFFE04A8
:040C6A00DC00001595
:040C6B0000800034D1
:040C6C002021883A81
:040C6D002809883A90
:040C6E00DFC00115CD
:040C6F0010157A15CD
:040C7000000379C044
:040C710010FFFFD899
:040C7200180004263C
:040C7300DFC00117C6
:040C7400DC00001789
:040C7500DEC00204D7
:040C7600F800283A20
:040C770000C0003485
:040C780018D57A17FA
:040C7900183FF92601
:040C7A0080C0001521
:040C7B00DFC00117BE
:040C7C00DC00001781
:040C7D00DEC00204CF
:040C7E00F800283A18
